{
  "contractName": "VotingSystem",
  "abi": [
    {
      "inputs": [],
      "stateMutability": "nonpayable",
      "type": "constructor"
    },
    {
      "anonymous": false,
      "inputs": [],
      "name": "AllVotesReset",
      "type": "event"
    },
    {
      "anonymous": false,
      "inputs": [
        {
          "indexed": true,
          "internalType": "address",
          "name": "voter",
          "type": "address"
        },
        {
          "indexed": false,
          "internalType": "string",
          "name": "candidateName",
          "type": "string"
        }
      ],
      "name": "VoteCast",
      "type": "event"
    },
    {
      "anonymous": false,
      "inputs": [
        {
          "indexed": true,
          "internalType": "address",
          "name": "voter",
          "type": "address"
        },
        {
          "indexed": false,
          "internalType": "string",
          "name": "candidateName",
          "type": "string"
        }
      ],
      "name": "VoteReset",
      "type": "event"
    },
    {
      "inputs": [],
      "name": "admin",
      "outputs": [
        {
          "internalType": "address",
          "name": "",
          "type": "address"
        }
      ],
      "stateMutability": "view",
      "type": "function",
      "constant": true
    },
    {
      "inputs": [],
      "name": "electionEnded",
      "outputs": [
        {
          "internalType": "bool",
          "name": "",
          "type": "bool"
        }
      ],
      "stateMutability": "view",
      "type": "function",
      "constant": true
    },
    {
      "inputs": [
        {
          "internalType": "address",
          "name": "",
          "type": "address"
        }
      ],
      "name": "hasVoted",
      "outputs": [
        {
          "internalType": "bool",
          "name": "",
          "type": "bool"
        }
      ],
      "stateMutability": "view",
      "type": "function",
      "constant": true
    },
    {
      "inputs": [],
      "name": "isInitialized",
      "outputs": [
        {
          "internalType": "bool",
          "name": "",
          "type": "bool"
        }
      ],
      "stateMutability": "view",
      "type": "function",
      "constant": true
    },
    {
      "inputs": [],
      "name": "testMode",
      "outputs": [
        {
          "internalType": "bool",
          "name": "",
          "type": "bool"
        }
      ],
      "stateMutability": "view",
      "type": "function",
      "constant": true
    },
    {
      "inputs": [
        {
          "internalType": "string",
          "name": "",
          "type": "string"
        }
      ],
      "name": "voteCounts",
      "outputs": [
        {
          "internalType": "uint256",
          "name": "",
          "type": "uint256"
        }
      ],
      "stateMutability": "view",
      "type": "function",
      "constant": true
    },
    {
      "inputs": [
        {
          "internalType": "address",
          "name": "",
          "type": "address"
        }
      ],
      "name": "voterChoices",
      "outputs": [
        {
          "internalType": "string",
          "name": "",
          "type": "string"
        }
      ],
      "stateMutability": "view",
      "type": "function",
      "constant": true
    },
    {
      "inputs": [
        {
          "internalType": "string",
          "name": "_candidateName",
          "type": "string"
        }
      ],
      "name": "vote",
      "outputs": [],
      "stateMutability": "nonpayable",
      "type": "function"
    },
    {
      "inputs": [
        {
          "internalType": "string",
          "name": "_candidateName",
          "type": "string"
        }
      ],
      "name": "getVoteCount",
      "outputs": [
        {
          "internalType": "uint256",
          "name": "",
          "type": "uint256"
        }
      ],
      "stateMutability": "view",
      "type": "function",
      "constant": true
    },
    {
      "inputs": [
        {
          "internalType": "address",
          "name": "voter",
          "type": "address"
        }
      ],
      "name": "resetVotingState",
      "outputs": [],
      "stateMutability": "nonpayable",
      "type": "function"
    },
    {
      "inputs": [],
      "name": "resetAllVotes",
      "outputs": [],
      "stateMutability": "nonpayable",
      "type": "function"
    },
    {
      "inputs": [],
      "name": "toggleTestMode",
      "outputs": [],
      "stateMutability": "nonpayable",
      "type": "function"
    },
    {
      "inputs": [],
      "name": "endElection",
      "outputs": [],
      "stateMutability": "nonpayable",
      "type": "function"
    },
    {
      "inputs": [],
      "name": "isElectionEnded",
      "outputs": [
        {
          "internalType": "bool",
          "name": "",
          "type": "bool"
        }
      ],
      "stateMutability": "view",
      "type": "function",
      "constant": true
    }
  ],
  "bytecode": "0x608060405234801561001057600080fd5b5033600360006101000a81548173ffffffffffffffffffffffffffffffffffffffff021916908373ffffffffffffffffffffffffffffffffffffffff1602179055506001600360146101000a81548160ff0219169083151502179055506000600360156101000a81548160ff0219169083151502179055506001600360166101000a81548160ff021916908315150217905550611583806100b26000396000f3fe608060405234801561001057600080fd5b50600436106100ea5760003560e01c8063b13bbcb01161008c578063d4d0e93111610066578063d4d0e93114610239578063f851a44014610243578063fc36e15b14610261578063fe7ce6911461027d576100ea565b8063b13bbcb0146101e1578063c94ca9e3146101fd578063cd9ea3421461021b576100ea565b80634205717d116100c85780634205717d1461016d5780635439a01b1461019d57806359f78468146101a757806366f6288d146101b1576100ea565b8063069953a7146100ef57806309eef43e1461011f578063392e53cd1461014f575b600080fd5b61010960048036038101906101049190610fec565b61029b565b604051610116919061104e565b60405180910390f35b610139600480360381019061013491906110c7565b6102c3565b604051610146919061110f565b60405180910390f35b6101576102e3565b604051610164919061110f565b60405180910390f35b61018760048036038101906101829190610fec565b6102f6565b604051610194919061104e565b60405180910390f35b6101a5610324565b005b6101af6103e0565b005b6101cb60048036038101906101c691906110c7565b61048d565b6040516101d891906111b2565b60405180910390f35b6101fb60048036038101906101f691906110c7565b61052d565b005b61020561085c565b604051610212919061110f565b60405180910390f35b61022361086f565b604051610230919061110f565b60405180910390f35b610241610882565b005b61024b6109aa565b60405161025891906111e3565b60405180910390f35b61027b60048036038101906102769190610fec565b6109d0565b005b610285610d7f565b604051610292919061110f565b60405180910390f35b60006002826040516102ad919061123a565b9081526020016040518091039020549050919050565b60006020528060005260406000206000915054906101000a900460ff1681565b600360149054906101000a900460ff1681565b6002818051602081018201805184825260208301602085012081835280955050505050506000915090505481565b600360009054906101000a900473ffffffffffffffffffffffffffffffffffffffff1673ffffffffffffffffffffffffffffffffffffffff163373ffffffffffffffffffffffffffffffffffffffff16146103b4576040517f08c379a00000000000000000000000000000000000000000000000000000000081526004016103ab906112c3565b60405180910390fd5b600360169054906101000a900460ff1615600360166101000a81548160ff021916908315150217905550565b600360009054906101000a900473ffffffffffffffffffffffffffffffffffffffff1673ffffffffffffffffffffffffffffffffffffffff163373ffffffffffffffffffffffffffffffffffffffff1614610470576040517f08c379a0000000000000000000000000000000000000000000000000000000008152600401610467906112c3565b60405180910390fd5b6001600360156101000a81548160ff021916908315150217905550565b600160205280600052604060002060009150905080546104ac90611312565b80601f01602080910402602001604051908101604052809291908181526020018280546104d890611312565b80156105255780601f106104fa57610100808354040283529160200191610525565b820191906000526020600020905b81548152906001019060200180831161050857829003601f168201915b505050505081565b600360009054906101000a900473ffffffffffffffffffffffffffffffffffffffff1673ffffffffffffffffffffffffffffffffffffffff163373ffffffffffffffffffffffffffffffffffffffff16146105bd576040517f08c379a00000000000000000000000000000000000000000000000000000000081526004016105b4906112c3565b60405180910390fd5b600360169054906101000a900460ff1661060c576040517f08c379a0000000000000000000000000000000000000000000000000000000008152600401610603906113b5565b60405180910390fd5b6000808273ffffffffffffffffffffffffffffffffffffffff1673ffffffffffffffffffffffffffffffffffffffff16815260200190815260200160002060009054906101000a900460ff16156107b7576000600160008373ffffffffffffffffffffffffffffffffffffffff1673ffffffffffffffffffffffffffffffffffffffff16815260200190815260200160002080546106a990611312565b80601f01602080910402602001604051908101604052809291908181526020018280546106d590611312565b80156107225780601f106106f757610100808354040283529160200191610722565b820191906000526020600020905b81548152906001019060200180831161070557829003601f168201915b5050505050905060008151146107b557600281604051610742919061123a565b9081526020016040518091039020600081548092919061076190611404565b91905055508173ffffffffffffffffffffffffffffffffffffffff167fe55d94c91f4b2e4223cc9667db0b9bc69551c633ef039e35048f87f705bda1b6826040516107ac91906111b2565b60405180910390a25b505b60008060008373ffffffffffffffffffffffffffffffffffffffff1673ffffffffffffffffffffffffffffffffffffffff16815260200190815260200160002060006101000a81548160ff021916908315150217905550600160008273ffffffffffffffffffffffffffffffffffffffff1673ffffffffffffffffffffffffffffffffffffffff16815260200190815260200160002060006108599190610daf565b50565b600360159054906101000a900460ff1681565b600360169054906101000a900460ff1681565b600360009054906101000a900473ffffffffffffffffffffffffffffffffffffffff1673ffffffffffffffffffffffffffffffffffffffff163373ffffffffffffffffffffffffffffffffffffffff1614610912576040517f08c379a0000000000000000000000000000000000000000000000000000000008152600401610909906112c3565b60405180910390fd5b600360169054906101000a900460ff16610961576040517f08c379a0000000000000000000000000000000000000000000000000000000008152600401610958906113b5565b60405180910390fd5b6000600360156101000a81548160ff0219169083151502179055507fd786701f16e2371292deffe83124ed2a906cc41e6f2f29e0229a30c65bc80b8960405160405180910390a1565b600360009054906101000a900473ffffffffffffffffffffffffffffffffffffffff1681565b600360159054906101000a900460ff1615806109f85750600360169054906101000a900460ff165b610a37576040517f08c379a0000000000000000000000000000000000000000000000000000000008152600401610a2e90611479565b60405180910390fd5b6000803373ffffffffffffffffffffffffffffffffffffffff1673ffffffffffffffffffffffffffffffffffffffff16815260200190815260200160002060009054906101000a900460ff161580610a9b5750600360169054906101000a900460ff165b610ada576040517f08c379a0000000000000000000000000000000000000000000000000000000008152600401610ad1906114e5565b60405180910390fd5b600360169054906101000a900460ff168015610b3e57506000803373ffffffffffffffffffffffffffffffffffffffff1673ffffffffffffffffffffffffffffffffffffffff16815260200190815260200160002060009054906101000a900460ff165b15610c4f576000600160003373ffffffffffffffffffffffffffffffffffffffff1673ffffffffffffffffffffffffffffffffffffffff1681526020019081526020016000208054610b8f90611312565b80601f0160208091040260200160405190810160405280929190818152602001828054610bbb90611312565b8015610c085780601f10610bdd57610100808354040283529160200191610c08565b820191906000526020600020905b815481529060010190602001808311610beb57829003601f168201915b505050505090506000815114610c4d57600281604051610c28919061123a565b90815260200160405180910390206000815480929190610c4790611404565b91905055505b505b60016000803373ffffffffffffffffffffffffffffffffffffffff1673ffffffffffffffffffffffffffffffffffffffff16815260200190815260200160002060006101000a81548160ff02191690831515021790555080600160003373ffffffffffffffffffffffffffffffffffffffff1673ffffffffffffffffffffffffffffffffffffffff1681526020019081526020016000209080519060200190610cf9929190610def565b50600281604051610d0a919061123a565b90815260200160405180910390206000815480929190610d2990611505565b91905055503373ffffffffffffffffffffffffffffffffffffffff167f866dc605853954ffa419910eb05d67f430efec2e7db7ce135bf55565667a4ab482604051610d7491906111b2565b60405180910390a250565b6000600360159054906101000a900460ff168015610daa5750600360169054906101000a900460ff16155b905090565b508054610dbb90611312565b6000825580601f10610dcd5750610dec565b601f016020900490600052602060002090810190610deb9190610e75565b5b50565b828054610dfb90611312565b90600052602060002090601f016020900481019282610e1d5760008555610e64565b82601f10610e3657805160ff1916838001178555610e64565b82800160010185558215610e64579182015b82811115610e63578251825591602001919060010190610e48565b5b509050610e719190610e75565b5090565b5b80821115610e8e576000816000905550600101610e76565b5090565b6000604051905090565b600080fd5b600080fd5b600080fd5b600080fd5b6000601f19601f8301169050919050565b7f4e487b7100000000000000000000000000000000000000000000000000000000600052604160045260246000fd5b610ef982610eb0565b810181811067ffffffffffffffff82111715610f1857610f17610ec1565b5b80604052505050565b6000610f2b610e92565b9050610f378282610ef0565b919050565b600067ffffffffffffffff821115610f5757610f56610ec1565b5b610f6082610eb0565b9050602081019050919050565b82818337600083830152505050565b6000610f8f610f8a84610f3c565b610f21565b905082815260208101848484011115610fab57610faa610eab565b5b610fb6848285610f6d565b509392505050565b600082601f830112610fd357610fd2610ea6565b5b8135610fe3848260208601610f7c565b91505092915050565b60006020828403121561100257611001610e9c565b5b600082013567ffffffffffffffff8111156110205761101f610ea1565b5b61102c84828501610fbe565b91505092915050565b6000819050919050565b61104881611035565b82525050565b6000602082019050611063600083018461103f565b92915050565b600073ffffffffffffffffffffffffffffffffffffffff82169050919050565b600061109482611069565b9050919050565b6110a481611089565b81146110af57600080fd5b50565b6000813590506110c18161109b565b92915050565b6000602082840312156110dd576110dc610e9c565b5b60006110eb848285016110b2565b91505092915050565b60008115159050919050565b611109816110f4565b82525050565b60006020820190506111246000830184611100565b92915050565b600081519050919050565b600082825260208201905092915050565b60005b83811015611164578082015181840152602081019050611149565b83811115611173576000848401525b50505050565b60006111848261112a565b61118e8185611135565b935061119e818560208601611146565b6111a781610eb0565b840191505092915050565b600060208201905081810360008301526111cc8184611179565b905092915050565b6111dd81611089565b82525050565b60006020820190506111f860008301846111d4565b92915050565b600081905092915050565b60006112148261112a565b61121e81856111fe565b935061122e818560208601611146565b80840191505092915050565b60006112468284611209565b915081905092915050565b7f4f6e6c792061646d696e2063616e20706572666f726d2074686973206163746960008201527f6f6e000000000000000000000000000000000000000000000000000000000000602082015250565b60006112ad602283611135565b91506112b882611251565b604082019050919050565b600060208201905081810360008301526112dc816112a0565b9050919050565b7f4e487b7100000000000000000000000000000000000000000000000000000000600052602260045260246000fd5b6000600282049050600182168061132a57607f821691505b60208210810361133d5761133c6112e3565b5b50919050565b7f43616e206f6e6c7920726573657420766f74657320696e2074657374206d6f6460008201527f6500000000000000000000000000000000000000000000000000000000000000602082015250565b600061139f602183611135565b91506113aa82611343565b604082019050919050565b600060208201905081810360008301526113ce81611392565b9050919050565b7f4e487b7100000000000000000000000000000000000000000000000000000000600052601160045260246000fd5b600061140f82611035565b915060008203611422576114216113d5565b5b600182039050919050565b7f456c656374696f6e2068617320656e6465640000000000000000000000000000600082015250565b6000611463601283611135565b915061146e8261142d565b602082019050919050565b6000602082019050818103600083015261149281611456565b9050919050565b7f416c726561647920766f74656400000000000000000000000000000000000000600082015250565b60006114cf600d83611135565b91506114da82611499565b602082019050919050565b600060208201905081810360008301526114fe816114c2565b9050919050565b600061151082611035565b91507fffffffffffffffffffffffffffffffffffffffffffffffffffffffffffffffff8203611542576115416113d5565b5b60018201905091905056fea264697066735822122001e6218165f9182af6bb420616f4de02c7fc275733c7ae96c67ddc38a93d6f0664736f6c634300080d0033",
  "immutableReferences": {},
  "source": "// SPDX-License-Identifier: MIT\r\npragma solidity ^0.8.0;\r\n\r\ncontract VotingSystem {\r\n    mapping(address => bool) public hasVoted;\r\n    mapping(address => string) public voterChoices;  // Track which candidate each voter voted for\r\n    mapping(string => uint256) public voteCounts;\r\n    address public admin;\r\n    bool public isInitialized;\r\n    bool public electionEnded;\r\n    bool public testMode;\r\n    \r\n    event VoteCast(address indexed voter, string candidateName);\r\n    event VoteReset(address indexed voter, string candidateName);\r\n    event AllVotesReset();\r\n    \r\n    constructor() {\r\n        admin = msg.sender;\r\n        isInitialized = true;\r\n        electionEnded = false;\r\n        testMode = true; // Set to true for testing\r\n    }\r\n    \r\n    modifier onlyAdmin() {\r\n        require(msg.sender == admin, \"Only admin can perform this action\");\r\n        _;\r\n    }\r\n    \r\n    function vote(string memory _candidateName) public {\r\n        require(!electionEnded || testMode, \"Election has ended\");\r\n        require(!hasVoted[msg.sender] || testMode, \"Already voted\");\r\n        \r\n        if (testMode && hasVoted[msg.sender]) {\r\n            // If voter has previously voted in test mode, remove their previous vote\r\n            string memory previousVote = voterChoices[msg.sender];\r\n            if (bytes(previousVote).length != 0) {\r\n                voteCounts[previousVote]--;\r\n            }\r\n        }\r\n        \r\n        hasVoted[msg.sender] = true;\r\n        voterChoices[msg.sender] = _candidateName;\r\n        voteCounts[_candidateName]++;\r\n        emit VoteCast(msg.sender, _candidateName);\r\n    }\r\n    \r\n    function getVoteCount(string memory _candidateName) public view returns (uint256) {\r\n        return voteCounts[_candidateName];\r\n    }\r\n    \r\n    // Reset function for testing\r\n    function resetVotingState(address voter) public onlyAdmin {\r\n        require(testMode, \"Can only reset votes in test mode\");\r\n        if (hasVoted[voter]) {\r\n            string memory candidateName = voterChoices[voter];\r\n            if (bytes(candidateName).length != 0) {\r\n                voteCounts[candidateName]--;\r\n                emit VoteReset(voter, candidateName);\r\n            }\r\n        }\r\n        hasVoted[voter] = false;\r\n        delete voterChoices[voter];\r\n    }\r\n    \r\n    // Reset all vote counts for testing\r\n    function resetAllVotes() public onlyAdmin {\r\n        require(testMode, \"Can only reset votes in test mode\");\r\n        electionEnded = false;\r\n        emit AllVotesReset();\r\n    }\r\n    \r\n    function toggleTestMode() public onlyAdmin {\r\n        testMode = !testMode;\r\n    }\r\n    \r\n    function endElection() public onlyAdmin {\r\n        electionEnded = true;\r\n    }\r\n    \r\n    function isElectionEnded() public view returns (bool) {\r\n        return electionEnded && !testMode;\r\n    }\r\n}",
  "sourcePath": "D:\\voting_app_blockchain_backend\\contracts\\VotingSystem.sol",
  "compiler": {
    "name": "solc",
    "version": "0.8.13+commit.abaa5c0e.Emscripten.clang"
  },
  "schemaVersion": "3.4.16",
  "updatedAt": "2025-01-06T05:01:21.096Z",
  "networkType": "ethereum",
  "devdoc": {
    "kind": "dev",
    "methods": {},
    "version": 1
  },
  "userdoc": {
    "kind": "user",
    "methods": {},
    "version": 1
  }
}